{
  "_format": "hh-sol-artifact-1",
  "contractName": "MyEpicNFT",
  "sourceName": "contracts/MyEpicNFT.sol",
  "abi": [
    {
      "inputs": [],
      "stateMutability": "nonpayable",
      "type": "constructor"
    },
    {
      "anonymous": false,
      "inputs": [
        {
          "indexed": true,
          "internalType": "address",
          "name": "owner",
          "type": "address"
        },
        {
          "indexed": true,
          "internalType": "address",
          "name": "approved",
          "type": "address"
        },
        {
          "indexed": true,
          "internalType": "uint256",
          "name": "tokenId",
          "type": "uint256"
        }
      ],
      "name": "Approval",
      "type": "event"
    },
    {
      "anonymous": false,
      "inputs": [
        {
          "indexed": true,
          "internalType": "address",
          "name": "owner",
          "type": "address"
        },
        {
          "indexed": true,
          "internalType": "address",
          "name": "operator",
          "type": "address"
        },
        {
          "indexed": false,
          "internalType": "bool",
          "name": "approved",
          "type": "bool"
        }
      ],
      "name": "ApprovalForAll",
      "type": "event"
    },
    {
      "anonymous": false,
      "inputs": [
        {
          "indexed": false,
          "internalType": "address",
          "name": "sender",
          "type": "address"
        },
        {
          "indexed": false,
          "internalType": "uint256",
          "name": "tokenId",
          "type": "uint256"
        }
      ],
      "name": "NewEpicNFTMinted",
      "type": "event"
    },
    {
      "anonymous": false,
      "inputs": [
        {
          "indexed": true,
          "internalType": "address",
          "name": "from",
          "type": "address"
        },
        {
          "indexed": true,
          "internalType": "address",
          "name": "to",
          "type": "address"
        },
        {
          "indexed": true,
          "internalType": "uint256",
          "name": "tokenId",
          "type": "uint256"
        }
      ],
      "name": "Transfer",
      "type": "event"
    },
    {
      "inputs": [
        {
          "internalType": "address",
          "name": "to",
          "type": "address"
        },
        {
          "internalType": "uint256",
          "name": "tokenId",
          "type": "uint256"
        }
      ],
      "name": "approve",
      "outputs": [],
      "stateMutability": "nonpayable",
      "type": "function"
    },
    {
      "inputs": [
        {
          "internalType": "address",
          "name": "owner",
          "type": "address"
        }
      ],
      "name": "balanceOf",
      "outputs": [
        {
          "internalType": "uint256",
          "name": "",
          "type": "uint256"
        }
      ],
      "stateMutability": "view",
      "type": "function"
    },
    {
      "inputs": [
        {
          "internalType": "uint256",
          "name": "tokenId",
          "type": "uint256"
        }
      ],
      "name": "getApproved",
      "outputs": [
        {
          "internalType": "address",
          "name": "",
          "type": "address"
        }
      ],
      "stateMutability": "view",
      "type": "function"
    },
    {
      "inputs": [],
      "name": "getTotalNFTsMintedSoFar",
      "outputs": [
        {
          "internalType": "uint256",
          "name": "",
          "type": "uint256"
        }
      ],
      "stateMutability": "view",
      "type": "function"
    },
    {
      "inputs": [
        {
          "internalType": "address",
          "name": "owner",
          "type": "address"
        },
        {
          "internalType": "address",
          "name": "operator",
          "type": "address"
        }
      ],
      "name": "isApprovedForAll",
      "outputs": [
        {
          "internalType": "bool",
          "name": "",
          "type": "bool"
        }
      ],
      "stateMutability": "view",
      "type": "function"
    },
    {
      "inputs": [],
      "name": "makeAnEpicNFT",
      "outputs": [],
      "stateMutability": "nonpayable",
      "type": "function"
    },
    {
      "inputs": [],
      "name": "name",
      "outputs": [
        {
          "internalType": "string",
          "name": "",
          "type": "string"
        }
      ],
      "stateMutability": "view",
      "type": "function"
    },
    {
      "inputs": [
        {
          "internalType": "uint256",
          "name": "tokenId",
          "type": "uint256"
        }
      ],
      "name": "ownerOf",
      "outputs": [
        {
          "internalType": "address",
          "name": "",
          "type": "address"
        }
      ],
      "stateMutability": "view",
      "type": "function"
    },
    {
      "inputs": [
        {
          "internalType": "uint256",
          "name": "tokenId",
          "type": "uint256"
        }
      ],
      "name": "pickRandomFirstWord",
      "outputs": [
        {
          "internalType": "string",
          "name": "",
          "type": "string"
        }
      ],
      "stateMutability": "view",
      "type": "function"
    },
    {
      "inputs": [
        {
          "internalType": "uint256",
          "name": "tokenId",
          "type": "uint256"
        }
      ],
      "name": "pickRandomSecondWord",
      "outputs": [
        {
          "internalType": "string",
          "name": "",
          "type": "string"
        }
      ],
      "stateMutability": "view",
      "type": "function"
    },
    {
      "inputs": [
        {
          "internalType": "uint256",
          "name": "tokenId",
          "type": "uint256"
        }
      ],
      "name": "pickRandomThirdWord",
      "outputs": [
        {
          "internalType": "string",
          "name": "",
          "type": "string"
        }
      ],
      "stateMutability": "view",
      "type": "function"
    },
    {
      "inputs": [
        {
          "internalType": "address",
          "name": "from",
          "type": "address"
        },
        {
          "internalType": "address",
          "name": "to",
          "type": "address"
        },
        {
          "internalType": "uint256",
          "name": "tokenId",
          "type": "uint256"
        }
      ],
      "name": "safeTransferFrom",
      "outputs": [],
      "stateMutability": "nonpayable",
      "type": "function"
    },
    {
      "inputs": [
        {
          "internalType": "address",
          "name": "from",
          "type": "address"
        },
        {
          "internalType": "address",
          "name": "to",
          "type": "address"
        },
        {
          "internalType": "uint256",
          "name": "tokenId",
          "type": "uint256"
        },
        {
          "internalType": "bytes",
          "name": "_data",
          "type": "bytes"
        }
      ],
      "name": "safeTransferFrom",
      "outputs": [],
      "stateMutability": "nonpayable",
      "type": "function"
    },
    {
      "inputs": [
        {
          "internalType": "address",
          "name": "operator",
          "type": "address"
        },
        {
          "internalType": "bool",
          "name": "approved",
          "type": "bool"
        }
      ],
      "name": "setApprovalForAll",
      "outputs": [],
      "stateMutability": "nonpayable",
      "type": "function"
    },
    {
      "inputs": [
        {
          "internalType": "bytes4",
          "name": "interfaceId",
          "type": "bytes4"
        }
      ],
      "name": "supportsInterface",
      "outputs": [
        {
          "internalType": "bool",
          "name": "",
          "type": "bool"
        }
      ],
      "stateMutability": "view",
      "type": "function"
    },
    {
      "inputs": [],
      "name": "symbol",
      "outputs": [
        {
          "internalType": "string",
          "name": "",
          "type": "string"
        }
      ],
      "stateMutability": "view",
      "type": "function"
    },
    {
      "inputs": [
        {
          "internalType": "uint256",
          "name": "tokenId",
          "type": "uint256"
        }
      ],
      "name": "tokenURI",
      "outputs": [
        {
          "internalType": "string",
          "name": "",
          "type": "string"
        }
      ],
      "stateMutability": "view",
      "type": "function"
    },
    {
      "inputs": [
        {
          "internalType": "address",
          "name": "from",
          "type": "address"
        },
        {
          "internalType": "address",
          "name": "to",
          "type": "address"
        },
        {
          "internalType": "uint256",
          "name": "tokenId",
          "type": "uint256"
        }
      ],
      "name": "transferFrom",
      "outputs": [],
      "stateMutability": "nonpayable",
      "type": "function"
    }
  ],
  "bytecode": "0x608060405260405180610160016040528061012f81526020016200448a61012f913960089080519060200190620000389291906200072f565b506040518060e001604052806040518060400160405280600981526020017f46616e746173746963000000000000000000000000000000000000000000000081525081526020016040518060400160405280600481526020017f457069630000000000000000000000000000000000000000000000000000000081525081526020016040518060400160405280600881526020017f5465727269626c6500000000000000000000000000000000000000000000000081525081526020016040518060400160405280600581526020017f4372617a7900000000000000000000000000000000000000000000000000000081525081526020016040518060400160405280600481526020017f57696c640000000000000000000000000000000000000000000000000000000081525081526020016040518060400160405280600a81526020017f54657272696679696e670000000000000000000000000000000000000000000081525081526020016040518060400160405280600681526020017f53706f6f6b7900000000000000000000000000000000000000000000000000008152508152506009906007620001f1929190620007c0565b506040518060e001604052806040518060400160405280600781526020017f43757063616b650000000000000000000000000000000000000000000000000081525081526020016040518060400160405280600581526020017f50697a7a6100000000000000000000000000000000000000000000000000000081525081526020016040518060400160405280600981526020017f4d696c6b7368616b65000000000000000000000000000000000000000000000081525081526020016040518060400160405280600581526020017f437572727900000000000000000000000000000000000000000000000000000081525081526020016040518060400160405280600781526020017f436869636b656e0000000000000000000000000000000000000000000000000081525081526020016040518060400160405280600881526020017f536e61647769636800000000000000000000000000000000000000000000000081525081526020016040518060400160405280600581526020017f53616c6164000000000000000000000000000000000000000000000000000000815250815250600a906007620003aa929190620007c0565b506040518060e001604052806040518060400160405280600581526020017f4c7566667900000000000000000000000000000000000000000000000000000081525081526020016040518060400160405280600481526020017f5a6f726f0000000000000000000000000000000000000000000000000000000081525081526020016040518060400160405280600481526020017f4e616d690000000000000000000000000000000000000000000000000000000081525081526020016040518060400160405280600581526020017f4b6169646f00000000000000000000000000000000000000000000000000000081525081526020016040518060400160405280600681526020017f5368616e6b73000000000000000000000000000000000000000000000000000081525081526020016040518060400160405280600581526020017f53616e6a6900000000000000000000000000000000000000000000000000000081525081526020016040518060400160405280600481526020017f55736f7000000000000000000000000000000000000000000000000000000000815250815250600b90600762000563929190620007c0565b503480156200057157600080fd5b506040518060400160405280600b81526020017f4f6e6550696563654e46540000000000000000000000000000000000000000008152506040518060400160405280600381526020017f4f504e00000000000000000000000000000000000000000000000000000000008152508160009080519060200190620005f69291906200072f565b5080600190805190602001906200060f9291906200072f565b5050506200065d6040518060400160405280601e81526020017f54686973206973206d79204e465420636f6e74726163742e20576f61682100008152506200066360201b6200113b1760201c565b620009e1565b62000703816040516024016200067a9190620008f5565b6040516020818303038152906040527f41304fac000000000000000000000000000000000000000000000000000000007bffffffffffffffffffffffffffffffffffffffffffffffffffffffff19166020820180517bffffffffffffffffffffffffffffffffffffffffffffffffffffffff83818316178352505050506200070660201b60201c565b50565b60008151905060006a636f6e736f6c652e6c6f679050602083016000808483855afa5050505050565b8280546200073d906200096b565b90600052602060002090601f016020900481019282620007615760008555620007ad565b82601f106200077c57805160ff1916838001178555620007ad565b82800160010185558215620007ad579182015b82811115620007ac5782518255916020019190600101906200078f565b5b509050620007bc919062000827565b5090565b82805482825590600052602060002090810192821562000814579160200282015b8281111562000813578251829080519060200190620008029291906200072f565b5091602001919060010190620007e1565b5b50905062000823919062000846565b5090565b5b808211156200084257600081600090555060010162000828565b5090565b5b808211156200086a57600081816200086091906200086e565b5060010162000847565b5090565b5080546200087c906200096b565b6000825580601f10620008905750620008b1565b601f016020900490600052602060002090810190620008b0919062000827565b5b50565b6000620008c18262000919565b620008cd818562000924565b9350620008df81856020860162000935565b620008ea81620009d0565b840191505092915050565b60006020820190508181036000830152620009118184620008b4565b905092915050565b600081519050919050565b600082825260208201905092915050565b60005b838110156200095557808201518184015260208101905062000938565b8381111562000965576000848401525b50505050565b600060028204905060018216806200098457607f821691505b602082108114156200099b576200099a620009a1565b5b50919050565b7f4e487b7100000000000000000000000000000000000000000000000000000000600052602260045260246000fd5b6000601f19601f8301169050919050565b613a9980620009f16000396000f3fe608060405234801561001057600080fd5b50600436106101165760003560e01c806370a08231116100a2578063b88d4fde11610071578063b88d4fde14610305578063c575757a14610321578063c87b56dd14610351578063de9d132f14610381578063e985e9c51461038b57610116565b806370a082311461026b57806395d89b411461029b578063a22cb465146102b9578063b187301f146102d557610116565b8063095ea7b3116100e9578063095ea7b3146101b757806323b872dd146101d35780632de38d68146101ef57806342842e0e1461021f5780636352211e1461023b57610116565b806301ffc9a71461011b578063060475901461014b57806306fdde0314610169578063081812fc14610187575b600080fd5b6101356004803603810190610130919061253b565b6103bb565b6040516101429190612c68565b60405180910390f35b61015361049d565b6040516101609190612f03565b60405180910390f35b6101716104ae565b60405161017e9190612c83565b60405180910390f35b6101a1600480360381019061019c919061258d565b610540565b6040516101ae9190612bd8565b60405180910390f35b6101d160048036038101906101cc91906124ff565b6105c5565b005b6101ed60048036038101906101e891906123f9565b6106dd565b005b6102096004803603810190610204919061258d565b61073d565b6040516102169190612c83565b60405180910390f35b610239600480360381019061023491906123f9565b61085b565b005b6102556004803603810190610250919061258d565b61087b565b6040516102629190612bd8565b60405180910390f35b61028560048036038101906102809190612394565b61092d565b6040516102929190612f03565b60405180910390f35b6102a36109e5565b6040516102b09190612c83565b60405180910390f35b6102d360048036038101906102ce91906124c3565b610a77565b005b6102ef60048036038101906102ea919061258d565b610a8d565b6040516102fc9190612c83565b60405180910390f35b61031f600480360381019061031a9190612448565b610bab565b005b61033b6004803603810190610336919061258d565b610c0d565b6040516103489190612c83565b60405180910390f35b61036b6004803603810190610366919061258d565b610d2b565b6040516103789190612c83565b60405180910390f35b610389610e7d565b005b6103a560048036038101906103a091906123bd565b6110a7565b6040516103b29190612c68565b60405180910390f35b60007f80ac58cd000000000000000000000000000000000000000000000000000000007bffffffffffffffffffffffffffffffffffffffffffffffffffffffff1916827bffffffffffffffffffffffffffffffffffffffffffffffffffffffff1916148061048657507f5b5e139f000000000000000000000000000000000000000000000000000000007bffffffffffffffffffffffffffffffffffffffffffffffffffffffff1916827bffffffffffffffffffffffffffffffffffffffffffffffffffffffff1916145b806104965750610495826111d4565b5b9050919050565b60006104a9600761123e565b905090565b6060600080546104bd90613197565b80601f01602080910402602001604051908101604052809291908181526020018280546104e990613197565b80156105365780601f1061050b57610100808354040283529160200191610536565b820191906000526020600020905b81548152906001019060200180831161051957829003601f168201915b5050505050905090565b600061054b8261124c565b61058a576040517f08c379a000000000000000000000000000000000000000000000000000000000815260040161058190612e43565b60405180910390fd5b6004600083815260200190815260200160002060009054906101000a900473ffffffffffffffffffffffffffffffffffffffff169050919050565b60006105d08261087b565b90508073ffffffffffffffffffffffffffffffffffffffff168373ffffffffffffffffffffffffffffffffffffffff161415610641576040517f08c379a000000000000000000000000000000000000000000000000000000000815260040161063890612ea3565b60405180910390fd5b8073ffffffffffffffffffffffffffffffffffffffff166106606112b8565b73ffffffffffffffffffffffffffffffffffffffff16148061068f575061068e816106896112b8565b6110a7565b5b6106ce576040517f08c379a00000000000000000000000000000000000000000000000000000000081526004016106c590612d83565b60405180910390fd5b6106d883836112c0565b505050565b6106ee6106e86112b8565b82611379565b61072d576040517f08c379a000000000000000000000000000000000000000000000000000000000815260040161072490612ee3565b60405180910390fd5b610738838383611457565b505050565b6060600061077161074d846116b3565b60405160200161075d9190612b94565b604051602081830303815290604052611860565b9050600980549050816107849190613243565b9050600981815481106107c0577f4e487b7100000000000000000000000000000000000000000000000000000000600052603260045260246000fd5b9060005260206000200180546107d590613197565b80601f016020809104026020016040519081016040528092919081815260200182805461080190613197565b801561084e5780601f106108235761010080835404028352916020019161084e565b820191906000526020600020905b81548152906001019060200180831161083157829003601f168201915b5050505050915050919050565b61087683838360405180602001604052806000815250610bab565b505050565b6000806002600084815260200190815260200160002060009054906101000a900473ffffffffffffffffffffffffffffffffffffffff169050600073ffffffffffffffffffffffffffffffffffffffff168173ffffffffffffffffffffffffffffffffffffffff161415610924576040517f08c379a000000000000000000000000000000000000000000000000000000000815260040161091b90612dc3565b60405180910390fd5b80915050919050565b60008073ffffffffffffffffffffffffffffffffffffffff168273ffffffffffffffffffffffffffffffffffffffff16141561099e576040517f08c379a000000000000000000000000000000000000000000000000000000000815260040161099590612da3565b60405180910390fd5b600360008373ffffffffffffffffffffffffffffffffffffffff1673ffffffffffffffffffffffffffffffffffffffff168152602001908152602001600020549050919050565b6060600180546109f490613197565b80601f0160208091040260200160405190810160405280929190818152602001828054610a2090613197565b8015610a6d5780601f10610a4257610100808354040283529160200191610a6d565b820191906000526020600020905b815481529060010190602001808311610a5057829003601f168201915b5050505050905090565b610a89610a826112b8565b8383611893565b5050565b60606000610ac1610a9d846116b3565b604051602001610aad9190612b2d565b604051602081830303815290604052611860565b9050600a8054905081610ad49190613243565b9050600a8181548110610b10577f4e487b7100000000000000000000000000000000000000000000000000000000600052603260045260246000fd5b906000526020600020018054610b2590613197565b80601f0160208091040260200160405190810160405280929190818152602001828054610b5190613197565b8015610b9e5780601f10610b7357610100808354040283529160200191610b9e565b820191906000526020600020905b815481529060010190602001808311610b8157829003601f168201915b5050505050915050919050565b610bbc610bb66112b8565b83611379565b610bfb576040517f08c379a0000000000000000000000000000000000000000000000000000000008152600401610bf290612ee3565b60405180910390fd5b610c0784848484611a00565b50505050565b60606000610c41610c1d846116b3565b604051602001610c2d9190612b0b565b604051602081830303815290604052611860565b9050600b8054905081610c549190613243565b9050600b8181548110610c90577f4e487b7100000000000000000000000000000000000000000000000000000000600052603260045260246000fd5b906000526020600020018054610ca590613197565b80601f0160208091040260200160405190810160405280929190818152602001828054610cd190613197565b8015610d1e5780601f10610cf357610100808354040283529160200191610d1e565b820191906000526020600020905b815481529060010190602001808311610d0157829003601f168201915b5050505050915050919050565b6060610d368261124c565b610d75576040517f08c379a0000000000000000000000000000000000000000000000000000000008152600401610d6c90612e23565b60405180910390fd5b6000600660008481526020019081526020016000208054610d9590613197565b80601f0160208091040260200160405190810160405280929190818152602001828054610dc190613197565b8015610e0e5780601f10610de357610100808354040283529160200191610e0e565b820191906000526020600020905b815481529060010190602001808311610df157829003601f168201915b505050505090506000610e1f611a5c565b9050600081511415610e35578192505050610e78565b600082511115610e6a578082604051602001610e52929190612a87565b60405160208183030381529060405292505050610e78565b610e7384611a73565b925050505b919050565b6000610e89600761123e565b9050601e8110610ece576040517f08c379a0000000000000000000000000000000000000000000000000000000008152600401610ec590612ec3565b60405180910390fd5b6000610ed98261073d565b90506000610ee683610a8d565b90506000610ef384610c0d565b90506000838383604051602001610f0c93929190612aab565b60405160208183030381529060405290506000600882604051602001610f33929190612adc565b60405160208183030381529060405290506000610f7883610f5384611b1a565b604051602001610f64929190612b4f565b604051602081830303815290604052611b1a565b9050600081604051602001610f8d9190612bb6565b6040516020818303038152906040529050610fdc6040518060400160405280601581526020017f0a2d2d2d2d2d2d2d2d2d2d2d2d2d2d2d2d2d2d2d2d000000000000000000000081525061113b565b610fe58161113b565b6110236040518060400160405280601581526020017f2d2d2d2d2d2d2d2d2d2d2d2d2d2d2d2d2d2d2d2d0a000000000000000000000081525061113b565b61102d3389611cd8565b6110378882611cf6565b6110416007611d6a565b6110646040518060600160405280602581526020016139ff602591398933611d80565b7febb98688741ffa4c7589bf325de30cf7becb63de567842e1ccdb6cb949fdc82c3389604051611095929190612c3f565b60405180910390a15050505050505050565b6000600560008473ffffffffffffffffffffffffffffffffffffffff1673ffffffffffffffffffffffffffffffffffffffff16815260200190815260200160002060008373ffffffffffffffffffffffffffffffffffffffff1673ffffffffffffffffffffffffffffffffffffffff16815260200190815260200160002060009054906101000a900460ff16905092915050565b6111d18160405160240161114f9190612c83565b6040516020818303038152906040527f41304fac000000000000000000000000000000000000000000000000000000007bffffffffffffffffffffffffffffffffffffffffffffffffffffffff19166020820180517bffffffffffffffffffffffffffffffffffffffffffffffffffffffff8381831617835250505050611e1f565b50565b60007f01ffc9a7000000000000000000000000000000000000000000000000000000007bffffffffffffffffffffffffffffffffffffffffffffffffffffffff1916827bffffffffffffffffffffffffffffffffffffffffffffffffffffffff1916149050919050565b600081600001549050919050565b60008073ffffffffffffffffffffffffffffffffffffffff166002600084815260200190815260200160002060009054906101000a900473ffffffffffffffffffffffffffffffffffffffff1673ffffffffffffffffffffffffffffffffffffffff1614159050919050565b600033905090565b816004600083815260200190815260200160002060006101000a81548173ffffffffffffffffffffffffffffffffffffffff021916908373ffffffffffffffffffffffffffffffffffffffff160217905550808273ffffffffffffffffffffffffffffffffffffffff166113338361087b565b73ffffffffffffffffffffffffffffffffffffffff167f8c5be1e5ebec7d5bd14f71427d1e84f3dd0314c0f7b2291e5b200ac8c7c3b92560405160405180910390a45050565b60006113848261124c565b6113c3576040517f08c379a00000000000000000000000000000000000000000000000000000000081526004016113ba90612d63565b60405180910390fd5b60006113ce8361087b565b90508073ffffffffffffffffffffffffffffffffffffffff168473ffffffffffffffffffffffffffffffffffffffff16148061143d57508373ffffffffffffffffffffffffffffffffffffffff1661142584610540565b73ffffffffffffffffffffffffffffffffffffffff16145b8061144e575061144d81856110a7565b5b91505092915050565b8273ffffffffffffffffffffffffffffffffffffffff166114778261087b565b73ffffffffffffffffffffffffffffffffffffffff16146114cd576040517f08c379a00000000000000000000000000000000000000000000000000000000081526004016114c490612e63565b60405180910390fd5b600073ffffffffffffffffffffffffffffffffffffffff168273ffffffffffffffffffffffffffffffffffffffff16141561153d576040517f08c379a000000000000000000000000000000000000000000000000000000000815260040161153490612d23565b60405180910390fd5b611548838383611e48565b6115536000826112c0565b6001600360008573ffffffffffffffffffffffffffffffffffffffff1673ffffffffffffffffffffffffffffffffffffffff16815260200190815260200160002060008282546115a391906130ad565b925050819055506001600360008473ffffffffffffffffffffffffffffffffffffffff1673ffffffffffffffffffffffffffffffffffffffff16815260200190815260200160002060008282546115fa9190612fcc565b92505081905550816002600083815260200190815260200160002060006101000a81548173ffffffffffffffffffffffffffffffffffffffff021916908373ffffffffffffffffffffffffffffffffffffffff160217905550808273ffffffffffffffffffffffffffffffffffffffff168473ffffffffffffffffffffffffffffffffffffffff167fddf252ad1be2c89b69c2b068fc378daa952ba7f163c4a11628f55a4df523b3ef60405160405180910390a4505050565b606060008214156116fb576040518060400160405280600181526020017f3000000000000000000000000000000000000000000000000000000000000000815250905061185b565b600082905060005b6000821461172d578080611716906131fa565b915050600a826117269190613022565b9150611703565b60008167ffffffffffffffff81111561176f577f4e487b7100000000000000000000000000000000000000000000000000000000600052604160045260246000fd5b6040519080825280601f01601f1916602001820160405280156117a15781602001600182028036833780820191505090505b5090505b60008514611854576001826117ba91906130ad565b9150600a856117c99190613243565b60306117d59190612fcc565b60f81b818381518110611811577f4e487b7100000000000000000000000000000000000000000000000000000000600052603260045260246000fd5b60200101907effffffffffffffffffffffffffffffffffffffffffffffffffffffffffffff1916908160001a905350600a8561184d9190613022565b94506117a5565b8093505050505b919050565b6000816040516020016118739190612a70565b6040516020818303038152906040528051906020012060001c9050919050565b8173ffffffffffffffffffffffffffffffffffffffff168373ffffffffffffffffffffffffffffffffffffffff161415611902576040517f08c379a00000000000000000000000000000000000000000000000000000000081526004016118f990612d43565b60405180910390fd5b80600560008573ffffffffffffffffffffffffffffffffffffffff1673ffffffffffffffffffffffffffffffffffffffff16815260200190815260200160002060008473ffffffffffffffffffffffffffffffffffffffff1673ffffffffffffffffffffffffffffffffffffffff16815260200190815260200160002060006101000a81548160ff0219169083151502179055508173ffffffffffffffffffffffffffffffffffffffff168373ffffffffffffffffffffffffffffffffffffffff167f17307eab39ab6107e8899845ad3d59bd9653f200f220920489ca2b5937696c31836040516119f39190612c68565b60405180910390a3505050565b611a0b848484611457565b611a1784848484611e4d565b611a56576040517f08c379a0000000000000000000000000000000000000000000000000000000008152600401611a4d90612ce3565b60405180910390fd5b50505050565b606060405180602001604052806000815250905090565b6060611a7e8261124c565b611abd576040517f08c379a0000000000000000000000000000000000000000000000000000000008152600401611ab490612e83565b60405180910390fd5b6000611ac7611a5c565b90506000815111611ae75760405180602001604052806000815250611b12565b80611af1846116b3565b604051602001611b02929190612a87565b6040516020818303038152906040525b915050919050565b60606000825190506000811415611b435760405180602001604052806000815250915050611cd3565b60006003600283611b549190612fcc565b611b5e9190613022565b6004611b6a9190613053565b90506000602082611b7b9190612fcc565b67ffffffffffffffff811115611bba577f4e487b7100000000000000000000000000000000000000000000000000000000600052604160045260246000fd5b6040519080825280601f01601f191660200182016040528015611bec5781602001600182028036833780820191505090505b5090506000604051806060016040528060408152602001613a24604091399050600181016020830160005b86811015611c905760038101905062ffffff818a015116603f8160121c168401518060081b905060ff603f83600c1c1686015116810190508060081b905060ff603f8360061c1686015116810190508060081b905060ff603f831686015116810190508060e01b90508084526004840193505050611c17565b506003860660018114611caa5760028114611cba57611cc5565b613d3d60f01b6002830352611cc5565b603d60f81b60018303525b508484525050819450505050505b919050565b611cf2828260405180602001604052806000815250611fe4565b5050565b611cff8261124c565b611d3e576040517f08c379a0000000000000000000000000000000000000000000000000000000008152600401611d3590612de3565b60405180910390fd5b80600660008481526020019081526020016000209080519060200190611d65929190612220565b505050565b6001816000016000828254019250508190555050565b611e1a838383604051602401611d9893929190612ca5565b6040516020818303038152906040527fe3849f79000000000000000000000000000000000000000000000000000000007bffffffffffffffffffffffffffffffffffffffffffffffffffffffff19166020820180517bffffffffffffffffffffffffffffffffffffffffffffffffffffffff8381831617835250505050611e1f565b505050565b60008151905060006a636f6e736f6c652e6c6f679050602083016000808483855afa5050505050565b505050565b6000611e6e8473ffffffffffffffffffffffffffffffffffffffff1661203f565b15611fd7578373ffffffffffffffffffffffffffffffffffffffff1663150b7a02611e976112b8565b8786866040518563ffffffff1660e01b8152600401611eb99493929190612bf3565b602060405180830381600087803b158015611ed357600080fd5b505af1925050508015611f0457506040513d601f19601f82011682018060405250810190611f019190612564565b60015b611f87573d8060008114611f34576040519150601f19603f3d011682016040523d82523d6000602084013e611f39565b606091505b50600081511415611f7f576040517f08c379a0000000000000000000000000000000000000000000000000000000008152600401611f7690612ce3565b60405180910390fd5b805181602001fd5b63150b7a0260e01b7bffffffffffffffffffffffffffffffffffffffffffffffffffffffff1916817bffffffffffffffffffffffffffffffffffffffffffffffffffffffff191614915050611fdc565b600190505b949350505050565b611fee8383612052565b611ffb6000848484611e4d565b61203a576040517f08c379a000000000000000000000000000000000000000000000000000000000815260040161203190612ce3565b60405180910390fd5b505050565b600080823b905060008111915050919050565b600073ffffffffffffffffffffffffffffffffffffffff168273ffffffffffffffffffffffffffffffffffffffff1614156120c2576040517f08c379a00000000000000000000000000000000000000000000000000000000081526004016120b990612e03565b60405180910390fd5b6120cb8161124c565b1561210b576040517f08c379a000000000000000000000000000000000000000000000000000000000815260040161210290612d03565b60405180910390fd5b61211760008383611e48565b6001600360008473ffffffffffffffffffffffffffffffffffffffff1673ffffffffffffffffffffffffffffffffffffffff16815260200190815260200160002060008282546121679190612fcc565b92505081905550816002600083815260200190815260200160002060006101000a81548173ffffffffffffffffffffffffffffffffffffffff021916908373ffffffffffffffffffffffffffffffffffffffff160217905550808273ffffffffffffffffffffffffffffffffffffffff16600073ffffffffffffffffffffffffffffffffffffffff167fddf252ad1be2c89b69c2b068fc378daa952ba7f163c4a11628f55a4df523b3ef60405160405180910390a45050565b82805461222c90613197565b90600052602060002090601f01602090048101928261224e5760008555612295565b82601f1061226757805160ff1916838001178555612295565b82800160010185558215612295579182015b82811115612294578251825591602001919060010190612279565b5b5090506122a291906122a6565b5090565b5b808211156122bf5760008160009055506001016122a7565b5090565b60006122d66122d184612f43565b612f1e565b9050828152602081018484840111156122ee57600080fd5b6122f9848285613155565b509392505050565b600081359050612310816139a2565b92915050565b600081359050612325816139b9565b92915050565b60008135905061233a816139d0565b92915050565b60008151905061234f816139d0565b92915050565b600082601f83011261236657600080fd5b81356123768482602086016122c3565b91505092915050565b60008135905061238e816139e7565b92915050565b6000602082840312156123a657600080fd5b60006123b484828501612301565b91505092915050565b600080604083850312156123d057600080fd5b60006123de85828601612301565b92505060206123ef85828601612301565b9150509250929050565b60008060006060848603121561240e57600080fd5b600061241c86828701612301565b935050602061242d86828701612301565b925050604061243e8682870161237f565b9150509250925092565b6000806000806080858703121561245e57600080fd5b600061246c87828801612301565b945050602061247d87828801612301565b935050604061248e8782880161237f565b925050606085013567ffffffffffffffff8111156124ab57600080fd5b6124b787828801612355565b91505092959194509250565b600080604083850312156124d657600080fd5b60006124e485828601612301565b92505060206124f585828601612316565b9150509250929050565b6000806040838503121561251257600080fd5b600061252085828601612301565b92505060206125318582860161237f565b9150509250929050565b60006020828403121561254d57600080fd5b600061255b8482850161232b565b91505092915050565b60006020828403121561257657600080fd5b600061258484828501612340565b91505092915050565b60006020828403121561259f57600080fd5b60006125ad8482850161237f565b91505092915050565b6125bf816130e1565b82525050565b6125ce816130f3565b82525050565b60006125df82612f89565b6125e98185612f9f565b93506125f9818560208601613164565b61260281613330565b840191505092915050565b600061261882612f94565b6126228185612fb0565b9350612632818560208601613164565b61263b81613330565b840191505092915050565b600061265182612f94565b61265b8185612fc1565b935061266b818560208601613164565b80840191505092915050565b6000815461268481613197565b61268e8186612fc1565b945060018216600081146126a957600181146126ba576126ed565b60ff198316865281860193506126ed565b6126c385612f74565b60005b838110156126e5578154818901526001820191506020810190506126c6565b838801955050505b50505092915050565b6000612703603283612fb0565b915061270e82613341565b604082019050919050565b6000612726601c83612fb0565b915061273182613390565b602082019050919050565b6000612749600a83612fc1565b9150612754826133b9565b600a82019050919050565b600061276c602483612fb0565b9150612777826133e2565b604082019050919050565b600061278f601983612fb0565b915061279a82613431565b602082019050919050565b60006127b2606383612fc1565b91506127bd8261345a565b606382019050919050565b60006127d5600b83612fc1565b91506127e0826134f5565b600b82019050919050565b60006127f8602c83612fb0565b91506128038261351e565b604082019050919050565b600061281b600d83612fc1565b91506128268261356d565b600d82019050919050565b600061283e603883612fb0565b915061284982613596565b604082019050919050565b6000612861602a83612fb0565b915061286c826135e5565b604082019050919050565b6000612884602983612fb0565b915061288f82613634565b604082019050919050565b60006128a7602e83612fb0565b91506128b282613683565b604082019050919050565b60006128ca600283612fc1565b91506128d5826136d2565b600282019050919050565b60006128ed602083612fb0565b91506128f8826136fb565b602082019050919050565b6000612910603183612fb0565b915061291b82613724565b604082019050919050565b6000612933602c83612fb0565b915061293e82613773565b604082019050919050565b6000612956602983612fb0565b9150612961826137c2565b604082019050919050565b6000612979602f83612fb0565b915061298482613811565b604082019050919050565b600061299c600a83612fc1565b91506129a782613860565b600a82019050919050565b60006129bf602183612fb0565b91506129ca82613889565b604082019050919050565b60006129e2600a83612fc1565b91506129ed826138d8565b600a82019050919050565b6000612a05601a83612fb0565b9150612a1082613901565b602082019050919050565b6000612a28601d83612fc1565b9150612a338261392a565b601d82019050919050565b6000612a4b603183612fb0565b9150612a5682613953565b604082019050919050565b612a6a8161314b565b82525050565b6000612a7c8284612646565b915081905092915050565b6000612a938285612646565b9150612a9f8284612646565b91508190509392505050565b6000612ab78286612646565b9150612ac38285612646565b9150612acf8284612646565b9150819050949350505050565b6000612ae88285612677565b9150612af48284612646565b9150612aff8261280e565b91508190509392505050565b6000612b168261273c565b9150612b228284612646565b915081905092915050565b6000612b38826127c8565b9150612b448284612646565b915081905092915050565b6000612b5a8261298f565b9150612b668285612646565b9150612b71826127a5565b9150612b7d8284612646565b9150612b88826128bd565b91508190509392505050565b6000612b9f826129d5565b9150612bab8284612646565b915081905092915050565b6000612bc182612a1b565b9150612bcd8284612646565b915081905092915050565b6000602082019050612bed60008301846125b6565b92915050565b6000608082019050612c0860008301876125b6565b612c1560208301866125b6565b612c226040830185612a61565b8181036060830152612c3481846125d4565b905095945050505050565b6000604082019050612c5460008301856125b6565b612c616020830184612a61565b9392505050565b6000602082019050612c7d60008301846125c5565b92915050565b60006020820190508181036000830152612c9d818461260d565b905092915050565b60006060820190508181036000830152612cbf818661260d565b9050612cce6020830185612a61565b612cdb60408301846125b6565b949350505050565b60006020820190508181036000830152612cfc816126f6565b9050919050565b60006020820190508181036000830152612d1c81612719565b9050919050565b60006020820190508181036000830152612d3c8161275f565b9050919050565b60006020820190508181036000830152612d5c81612782565b9050919050565b60006020820190508181036000830152612d7c816127eb565b9050919050565b60006020820190508181036000830152612d9c81612831565b9050919050565b60006020820190508181036000830152612dbc81612854565b9050919050565b60006020820190508181036000830152612ddc81612877565b9050919050565b60006020820190508181036000830152612dfc8161289a565b9050919050565b60006020820190508181036000830152612e1c816128e0565b9050919050565b60006020820190508181036000830152612e3c81612903565b9050919050565b60006020820190508181036000830152612e5c81612926565b9050919050565b60006020820190508181036000830152612e7c81612949565b9050919050565b60006020820190508181036000830152612e9c8161296c565b9050919050565b60006020820190508181036000830152612ebc816129b2565b9050919050565b60006020820190508181036000830152612edc816129f8565b9050919050565b60006020820190508181036000830152612efc81612a3e565b9050919050565b6000602082019050612f186000830184612a61565b92915050565b6000612f28612f39565b9050612f3482826131c9565b919050565b6000604051905090565b600067ffffffffffffffff821115612f5e57612f5d613301565b5b612f6782613330565b9050602081019050919050565b60008190508160005260206000209050919050565b600081519050919050565b600081519050919050565b600082825260208201905092915050565b600082825260208201905092915050565b600081905092915050565b6000612fd78261314b565b9150612fe28361314b565b9250827fffffffffffffffffffffffffffffffffffffffffffffffffffffffffffffffff0382111561301757613016613274565b5b828201905092915050565b600061302d8261314b565b91506130388361314b565b925082613048576130476132a3565b5b828204905092915050565b600061305e8261314b565b91506130698361314b565b9250817fffffffffffffffffffffffffffffffffffffffffffffffffffffffffffffffff04831182151516156130a2576130a1613274565b5b828202905092915050565b60006130b88261314b565b91506130c38361314b565b9250828210156130d6576130d5613274565b5b828203905092915050565b60006130ec8261312b565b9050919050565b60008115159050919050565b60007fffffffff0000000000000000000000000000000000000000000000000000000082169050919050565b600073ffffffffffffffffffffffffffffffffffffffff82169050919050565b6000819050919050565b82818337600083830152505050565b60005b83811015613182578082015181840152602081019050613167565b83811115613191576000848401525b50505050565b600060028204905060018216806131af57607f821691505b602082108114156131c3576131c26132d2565b5b50919050565b6131d282613330565b810181811067ffffffffffffffff821117156131f1576131f0613301565b5b80604052505050565b60006132058261314b565b91507fffffffffffffffffffffffffffffffffffffffffffffffffffffffffffffffff82141561323857613237613274565b5b600182019050919050565b600061324e8261314b565b91506132598361314b565b925082613269576132686132a3565b5b828206905092915050565b7f4e487b7100000000000000000000000000000000000000000000000000000000600052601160045260246000fd5b7f4e487b7100000000000000000000000000000000000000000000000000000000600052601260045260246000fd5b7f4e487b7100000000000000000000000000000000000000000000000000000000600052602260045260246000fd5b7f4e487b7100000000000000000000000000000000000000000000000000000000600052604160045260246000fd5b6000601f19601f8301169050919050565b7f4552433732313a207472616e7366657220746f206e6f6e20455243373231526560008201527f63656976657220696d706c656d656e7465720000000000000000000000000000602082015250565b7f4552433732313a20746f6b656e20616c7265616479206d696e74656400000000600082015250565b7f54484952445f574f524400000000000000000000000000000000000000000000600082015250565b7f4552433732313a207472616e7366657220746f20746865207a65726f2061646460008201527f7265737300000000000000000000000000000000000000000000000000000000602082015250565b7f4552433732313a20617070726f766520746f2063616c6c657200000000000000600082015250565b7f222c20226465736372697074696f6e223a20224120686967686c79206163636c60008201527f61696d656420636f6c6c656374696f6e206f6620737175617265732e222c202260208201527f696d616765223a2022646174613a696d6167652f7376672b786d6c3b6261736560408201527f36342c0000000000000000000000000000000000000000000000000000000000606082015250565b7f5345434f4e445f574f5244000000000000000000000000000000000000000000600082015250565b7f4552433732313a206f70657261746f7220717565727920666f72206e6f6e657860008201527f697374656e7420746f6b656e0000000000000000000000000000000000000000602082015250565b7f3c2f746578743e3c2f7376673e00000000000000000000000000000000000000600082015250565b7f4552433732313a20617070726f76652063616c6c6572206973206e6f74206f7760008201527f6e6572206e6f7220617070726f76656420666f7220616c6c0000000000000000602082015250565b7f4552433732313a2062616c616e636520717565727920666f7220746865207a6560008201527f726f206164647265737300000000000000000000000000000000000000000000602082015250565b7f4552433732313a206f776e657220717565727920666f72206e6f6e657869737460008201527f656e7420746f6b656e0000000000000000000000000000000000000000000000602082015250565b7f45524337323155524953746f726167653a2055524920736574206f66206e6f6e60008201527f6578697374656e7420746f6b656e000000000000000000000000000000000000602082015250565b7f227d000000000000000000000000000000000000000000000000000000000000600082015250565b7f4552433732313a206d696e7420746f20746865207a65726f2061646472657373600082015250565b7f45524337323155524953746f726167653a2055524920717565727920666f722060008201527f6e6f6e6578697374656e7420746f6b656e000000000000000000000000000000602082015250565b7f4552433732313a20617070726f76656420717565727920666f72206e6f6e657860008201527f697374656e7420746f6b656e0000000000000000000000000000000000000000602082015250565b7f4552433732313a207472616e73666572206f6620746f6b656e2074686174206960008201527f73206e6f74206f776e0000000000000000000000000000000000000000000000602082015250565b7f4552433732314d657461646174613a2055524920717565727920666f72206e6f60008201527f6e6578697374656e7420746f6b656e0000000000000000000000000000000000602082015250565b7f7b226e616d65223a202200000000000000000000000000000000000000000000600082015250565b7f4552433732313a20617070726f76616c20746f2063757272656e74206f776e6560008201527f7200000000000000000000000000000000000000000000000000000000000000602082015250565b7f46495253545f574f524400000000000000000000000000000000000000000000600082015250565b7f416c6c206f662032204e4654732077657265206d696e74656421000000000000600082015250565b7f646174613a6170706c69636174696f6e2f6a736f6e3b6261736536342c000000600082015250565b7f4552433732313a207472616e736665722063616c6c6572206973206e6f74206f60008201527f776e6572206e6f7220617070726f766564000000000000000000000000000000602082015250565b6139ab816130e1565b81146139b657600080fd5b50565b6139c2816130f3565b81146139cd57600080fd5b50565b6139d9816130ff565b81146139e457600080fd5b50565b6139f08161314b565b81146139fb57600080fd5b5056fe416e204e465420772f20494420257320686173206265656e206d696e74656420746f2025734142434445464748494a4b4c4d4e4f505152535455565758595a6162636465666768696a6b6c6d6e6f707172737475767778797a303132333435363738392b2fa2646970667358221220252fb8adba2cd9eaeb09fa7699b62f80ef49096c8af47a377c34332a6b4368b964736f6c634300080400333c73766720786d6c6e733d27687474703a2f2f7777772e77332e6f72672f323030302f73766727207072657365727665417370656374526174696f3d27784d696e594d696e206d656574272076696577426f783d273020302033353020333530273e3c7374796c653e2e62617365207b2066696c6c3a2077686974653b20666f6e742d66616d696c793a2073657269663b20666f6e742d73697a653a20323470783b207d3c2f7374796c653e3c726563742077696474683d273130302527206865696768743d2731303025272066696c6c3d27626c61636b27202f3e3c7465787420783d273530252720793d273530252720636c6173733d27626173652720646f6d696e616e742d626173656c696e653d276d6964646c652720746578742d616e63686f723d276d6964646c65273e",
  "linkReferences": {},
  "deployedLinkReferences": {}
}