{
  "_format": "hh-sol-artifact-1",
  "contractName": "MyEpicNFT",
  "sourceName": "contracts/MyEpicNFT.sol",
  "abi": [
    {
      "inputs": [],
      "stateMutability": "nonpayable",
      "type": "constructor"
    },
    {
      "anonymous": false,
      "inputs": [
        {
          "indexed": true,
          "internalType": "address",
          "name": "owner",
          "type": "address"
        },
        {
          "indexed": true,
          "internalType": "address",
          "name": "approved",
          "type": "address"
        },
        {
          "indexed": true,
          "internalType": "uint256",
          "name": "tokenId",
          "type": "uint256"
        }
      ],
      "name": "Approval",
      "type": "event"
    },
    {
      "anonymous": false,
      "inputs": [
        {
          "indexed": true,
          "internalType": "address",
          "name": "owner",
          "type": "address"
        },
        {
          "indexed": true,
          "internalType": "address",
          "name": "operator",
          "type": "address"
        },
        {
          "indexed": false,
          "internalType": "bool",
          "name": "approved",
          "type": "bool"
        }
      ],
      "name": "ApprovalForAll",
      "type": "event"
    },
    {
      "anonymous": false,
      "inputs": [
        {
          "indexed": false,
          "internalType": "address",
          "name": "sender",
          "type": "address"
        },
        {
          "indexed": false,
          "internalType": "uint256",
          "name": "tokenId",
          "type": "uint256"
        }
      ],
      "name": "NewEpicNFTMinted",
      "type": "event"
    },
    {
      "anonymous": false,
      "inputs": [
        {
          "indexed": true,
          "internalType": "address",
          "name": "from",
          "type": "address"
        },
        {
          "indexed": true,
          "internalType": "address",
          "name": "to",
          "type": "address"
        },
        {
          "indexed": true,
          "internalType": "uint256",
          "name": "tokenId",
          "type": "uint256"
        }
      ],
      "name": "Transfer",
      "type": "event"
    },
    {
      "inputs": [],
      "name": "PRICE",
      "outputs": [
        {
          "internalType": "uint256",
          "name": "",
          "type": "uint256"
        }
      ],
      "stateMutability": "view",
      "type": "function"
    },
    {
      "inputs": [
        {
          "internalType": "address",
          "name": "to",
          "type": "address"
        },
        {
          "internalType": "uint256",
          "name": "tokenId",
          "type": "uint256"
        }
      ],
      "name": "approve",
      "outputs": [],
      "stateMutability": "nonpayable",
      "type": "function"
    },
    {
      "inputs": [
        {
          "internalType": "address",
          "name": "owner",
          "type": "address"
        }
      ],
      "name": "balanceOf",
      "outputs": [
        {
          "internalType": "uint256",
          "name": "",
          "type": "uint256"
        }
      ],
      "stateMutability": "view",
      "type": "function"
    },
    {
      "inputs": [
        {
          "internalType": "uint256",
          "name": "tokenId",
          "type": "uint256"
        }
      ],
      "name": "getApproved",
      "outputs": [
        {
          "internalType": "address",
          "name": "",
          "type": "address"
        }
      ],
      "stateMutability": "view",
      "type": "function"
    },
    {
      "inputs": [],
      "name": "getTotalNFTsMintedSoFar",
      "outputs": [
        {
          "internalType": "uint256",
          "name": "",
          "type": "uint256"
        }
      ],
      "stateMutability": "view",
      "type": "function"
    },
    {
      "inputs": [
        {
          "internalType": "address",
          "name": "owner",
          "type": "address"
        },
        {
          "internalType": "address",
          "name": "operator",
          "type": "address"
        }
      ],
      "name": "isApprovedForAll",
      "outputs": [
        {
          "internalType": "bool",
          "name": "",
          "type": "bool"
        }
      ],
      "stateMutability": "view",
      "type": "function"
    },
    {
      "inputs": [],
      "name": "makeAnEpicNFT",
      "outputs": [],
      "stateMutability": "payable",
      "type": "function"
    },
    {
      "inputs": [],
      "name": "name",
      "outputs": [
        {
          "internalType": "string",
          "name": "",
          "type": "string"
        }
      ],
      "stateMutability": "view",
      "type": "function"
    },
    {
      "inputs": [
        {
          "internalType": "uint256",
          "name": "tokenId",
          "type": "uint256"
        }
      ],
      "name": "ownerOf",
      "outputs": [
        {
          "internalType": "address",
          "name": "",
          "type": "address"
        }
      ],
      "stateMutability": "view",
      "type": "function"
    },
    {
      "inputs": [
        {
          "internalType": "uint256",
          "name": "tokenId",
          "type": "uint256"
        }
      ],
      "name": "pickRandomFirstWord",
      "outputs": [
        {
          "internalType": "string",
          "name": "",
          "type": "string"
        }
      ],
      "stateMutability": "view",
      "type": "function"
    },
    {
      "inputs": [
        {
          "internalType": "uint256",
          "name": "tokenId",
          "type": "uint256"
        }
      ],
      "name": "pickRandomSecondWord",
      "outputs": [
        {
          "internalType": "string",
          "name": "",
          "type": "string"
        }
      ],
      "stateMutability": "view",
      "type": "function"
    },
    {
      "inputs": [
        {
          "internalType": "uint256",
          "name": "tokenId",
          "type": "uint256"
        }
      ],
      "name": "pickRandomThirdWord",
      "outputs": [
        {
          "internalType": "string",
          "name": "",
          "type": "string"
        }
      ],
      "stateMutability": "view",
      "type": "function"
    },
    {
      "inputs": [
        {
          "internalType": "address",
          "name": "from",
          "type": "address"
        },
        {
          "internalType": "address",
          "name": "to",
          "type": "address"
        },
        {
          "internalType": "uint256",
          "name": "tokenId",
          "type": "uint256"
        }
      ],
      "name": "safeTransferFrom",
      "outputs": [],
      "stateMutability": "nonpayable",
      "type": "function"
    },
    {
      "inputs": [
        {
          "internalType": "address",
          "name": "from",
          "type": "address"
        },
        {
          "internalType": "address",
          "name": "to",
          "type": "address"
        },
        {
          "internalType": "uint256",
          "name": "tokenId",
          "type": "uint256"
        },
        {
          "internalType": "bytes",
          "name": "_data",
          "type": "bytes"
        }
      ],
      "name": "safeTransferFrom",
      "outputs": [],
      "stateMutability": "nonpayable",
      "type": "function"
    },
    {
      "inputs": [
        {
          "internalType": "address",
          "name": "operator",
          "type": "address"
        },
        {
          "internalType": "bool",
          "name": "approved",
          "type": "bool"
        }
      ],
      "name": "setApprovalForAll",
      "outputs": [],
      "stateMutability": "nonpayable",
      "type": "function"
    },
    {
      "inputs": [
        {
          "internalType": "bytes4",
          "name": "interfaceId",
          "type": "bytes4"
        }
      ],
      "name": "supportsInterface",
      "outputs": [
        {
          "internalType": "bool",
          "name": "",
          "type": "bool"
        }
      ],
      "stateMutability": "view",
      "type": "function"
    },
    {
      "inputs": [],
      "name": "symbol",
      "outputs": [
        {
          "internalType": "string",
          "name": "",
          "type": "string"
        }
      ],
      "stateMutability": "view",
      "type": "function"
    },
    {
      "inputs": [
        {
          "internalType": "uint256",
          "name": "tokenId",
          "type": "uint256"
        }
      ],
      "name": "tokenURI",
      "outputs": [
        {
          "internalType": "string",
          "name": "",
          "type": "string"
        }
      ],
      "stateMutability": "view",
      "type": "function"
    },
    {
      "inputs": [
        {
          "internalType": "address",
          "name": "from",
          "type": "address"
        },
        {
          "internalType": "address",
          "name": "to",
          "type": "address"
        },
        {
          "internalType": "uint256",
          "name": "tokenId",
          "type": "uint256"
        }
      ],
      "name": "transferFrom",
      "outputs": [],
      "stateMutability": "nonpayable",
      "type": "function"
    }
  ],
  "bytecode": "0x608060405260405180610160016040528061012f81526020016200467761012f913960089080519060200190620000389291906200072f565b506040518060e001604052806040518060400160405280600981526020017f46616e746173746963000000000000000000000000000000000000000000000081525081526020016040518060400160405280600481526020017f457069630000000000000000000000000000000000000000000000000000000081525081526020016040518060400160405280600881526020017f5465727269626c6500000000000000000000000000000000000000000000000081525081526020016040518060400160405280600581526020017f4372617a7900000000000000000000000000000000000000000000000000000081525081526020016040518060400160405280600481526020017f57696c640000000000000000000000000000000000000000000000000000000081525081526020016040518060400160405280600a81526020017f54657272696679696e670000000000000000000000000000000000000000000081525081526020016040518060400160405280600681526020017f53706f6f6b7900000000000000000000000000000000000000000000000000008152508152506009906007620001f1929190620007c0565b506040518060e001604052806040518060400160405280600781526020017f43757063616b650000000000000000000000000000000000000000000000000081525081526020016040518060400160405280600581526020017f50697a7a6100000000000000000000000000000000000000000000000000000081525081526020016040518060400160405280600981526020017f4d696c6b7368616b65000000000000000000000000000000000000000000000081525081526020016040518060400160405280600581526020017f437572727900000000000000000000000000000000000000000000000000000081525081526020016040518060400160405280600781526020017f436869636b656e0000000000000000000000000000000000000000000000000081525081526020016040518060400160405280600881526020017f536e61647769636800000000000000000000000000000000000000000000000081525081526020016040518060400160405280600581526020017f53616c6164000000000000000000000000000000000000000000000000000000815250815250600a906007620003aa929190620007c0565b506040518060e001604052806040518060400160405280600581526020017f4c7566667900000000000000000000000000000000000000000000000000000081525081526020016040518060400160405280600481526020017f5a6f726f0000000000000000000000000000000000000000000000000000000081525081526020016040518060400160405280600481526020017f4e616d690000000000000000000000000000000000000000000000000000000081525081526020016040518060400160405280600581526020017f4b6169646f00000000000000000000000000000000000000000000000000000081525081526020016040518060400160405280600681526020017f5368616e6b73000000000000000000000000000000000000000000000000000081525081526020016040518060400160405280600581526020017f53616e6a6900000000000000000000000000000000000000000000000000000081525081526020016040518060400160405280600481526020017f55736f7000000000000000000000000000000000000000000000000000000000815250815250600b90600762000563929190620007c0565b503480156200057157600080fd5b506040518060400160405280600b81526020017f4f6e6550696563654e46540000000000000000000000000000000000000000008152506040518060400160405280600381526020017f4f504e00000000000000000000000000000000000000000000000000000000008152508160009080519060200190620005f69291906200072f565b5080600190805190602001906200060f9291906200072f565b5050506200065d6040518060400160405280601e81526020017f54686973206973206d79204e465420636f6e74726163742e20576f61682100008152506200066360201b620012961760201c565b620009e1565b62000703816040516024016200067a9190620008f5565b6040516020818303038152906040527f41304fac000000000000000000000000000000000000000000000000000000007bffffffffffffffffffffffffffffffffffffffffffffffffffffffff19166020820180517bffffffffffffffffffffffffffffffffffffffffffffffffffffffff83818316178352505050506200070660201b60201c565b50565b60008151905060006a636f6e736f6c652e6c6f679050602083016000808483855afa5050505050565b8280546200073d906200096b565b90600052602060002090601f016020900481019282620007615760008555620007ad565b82601f106200077c57805160ff1916838001178555620007ad565b82800160010185558215620007ad579182015b82811115620007ac5782518255916020019190600101906200078f565b5b509050620007bc919062000827565b5090565b82805482825590600052602060002090810192821562000814579160200282015b8281111562000813578251829080519060200190620008029291906200072f565b5091602001919060010190620007e1565b5b50905062000823919062000846565b5090565b5b808211156200084257600081600090555060010162000828565b5090565b5b808211156200086a57600081816200086091906200086e565b5060010162000847565b5090565b5080546200087c906200096b565b6000825580601f10620008905750620008b1565b601f016020900490600052602060002090810190620008b0919062000827565b5b50565b6000620008c18262000919565b620008cd818562000924565b9350620008df81856020860162000935565b620008ea81620009d0565b840191505092915050565b60006020820190508181036000830152620009118184620008b4565b905092915050565b600081519050919050565b600082825260208201905092915050565b60005b838110156200095557808201518184015260208101905062000938565b8381111562000965576000848401525b50505050565b600060028204905060018216806200098457607f821691505b602082108114156200099b576200099a620009a1565b5b50919050565b7f4e487b7100000000000000000000000000000000000000000000000000000000600052602260045260246000fd5b6000601f19601f8301169050919050565b613c8680620009f16000396000f3fe6080604052600436106101145760003560e01c806370a08231116100a0578063b88d4fde11610064578063b88d4fde146103d7578063c575757a14610400578063c87b56dd1461043d578063de9d132f1461047a578063e985e9c51461048457610114565b806370a08231146102de5780638d859f3e1461031b57806395d89b4114610346578063a22cb46514610371578063b187301f1461039a57610114565b8063095ea7b3116100e7578063095ea7b3146101e957806323b872dd146102125780632de38d681461023b57806342842e0e146102785780636352211e146102a157610114565b806301ffc9a714610119578063060475901461015657806306fdde0314610181578063081812fc146101ac575b600080fd5b34801561012557600080fd5b50610140600480360381019061013b9190612696565b6104c1565b60405161014d9190612de6565b60405180910390f35b34801561016257600080fd5b5061016b6105a3565b60405161017891906130a1565b60405180910390f35b34801561018d57600080fd5b506101966105b4565b6040516101a39190612e01565b60405180910390f35b3480156101b857600080fd5b506101d360048036038101906101ce91906126e8565b610646565b6040516101e09190612d56565b60405180910390f35b3480156101f557600080fd5b50610210600480360381019061020b919061265a565b6106cb565b005b34801561021e57600080fd5b5061023960048036038101906102349190612554565b6107e3565b005b34801561024757600080fd5b50610262600480360381019061025d91906126e8565b610843565b60405161026f9190612e01565b60405180910390f35b34801561028457600080fd5b5061029f600480360381019061029a9190612554565b610961565b005b3480156102ad57600080fd5b506102c860048036038101906102c391906126e8565b610981565b6040516102d59190612d56565b60405180910390f35b3480156102ea57600080fd5b50610305600480360381019061030091906124ef565b610a33565b60405161031291906130a1565b60405180910390f35b34801561032757600080fd5b50610330610aeb565b60405161033d91906130a1565b60405180910390f35b34801561035257600080fd5b5061035b610af6565b6040516103689190612e01565b60405180910390f35b34801561037d57600080fd5b506103986004803603810190610393919061261e565b610b88565b005b3480156103a657600080fd5b506103c160048036038101906103bc91906126e8565b610b9e565b6040516103ce9190612e01565b60405180910390f35b3480156103e357600080fd5b506103fe60048036038101906103f991906125a3565b610cbc565b005b34801561040c57600080fd5b50610427600480360381019061042291906126e8565b610d1e565b6040516104349190612e01565b60405180910390f35b34801561044957600080fd5b50610464600480360381019061045f91906126e8565b610e3c565b6040516104719190612e01565b60405180910390f35b610482610f8e565b005b34801561049057600080fd5b506104ab60048036038101906104a69190612518565b611202565b6040516104b89190612de6565b60405180910390f35b60007f80ac58cd000000000000000000000000000000000000000000000000000000007bffffffffffffffffffffffffffffffffffffffffffffffffffffffff1916827bffffffffffffffffffffffffffffffffffffffffffffffffffffffff1916148061058c57507f5b5e139f000000000000000000000000000000000000000000000000000000007bffffffffffffffffffffffffffffffffffffffffffffffffffffffff1916827bffffffffffffffffffffffffffffffffffffffffffffffffffffffff1916145b8061059c575061059b8261132f565b5b9050919050565b60006105af6007611399565b905090565b6060600080546105c390613335565b80601f01602080910402602001604051908101604052809291908181526020018280546105ef90613335565b801561063c5780601f106106115761010080835404028352916020019161063c565b820191906000526020600020905b81548152906001019060200180831161061f57829003601f168201915b5050505050905090565b6000610651826113a7565b610690576040517f08c379a000000000000000000000000000000000000000000000000000000000815260040161068790612fe1565b60405180910390fd5b6004600083815260200190815260200160002060009054906101000a900473ffffffffffffffffffffffffffffffffffffffff169050919050565b60006106d682610981565b90508073ffffffffffffffffffffffffffffffffffffffff168373ffffffffffffffffffffffffffffffffffffffff161415610747576040517f08c379a000000000000000000000000000000000000000000000000000000000815260040161073e90613041565b60405180910390fd5b8073ffffffffffffffffffffffffffffffffffffffff16610766611413565b73ffffffffffffffffffffffffffffffffffffffff16148061079557506107948161078f611413565b611202565b5b6107d4576040517f08c379a00000000000000000000000000000000000000000000000000000000081526004016107cb90612f21565b60405180910390fd5b6107de838361141b565b505050565b6107f46107ee611413565b826114d4565b610833576040517f08c379a000000000000000000000000000000000000000000000000000000000815260040161082a90613081565b60405180910390fd5b61083e8383836115b2565b505050565b606060006108776108538461180e565b6040516020016108639190612d12565b6040516020818303038152906040526119bb565b90506009805490508161088a91906133e1565b9050600981815481106108c6577f4e487b7100000000000000000000000000000000000000000000000000000000600052603260045260246000fd5b9060005260206000200180546108db90613335565b80601f016020809104026020016040519081016040528092919081815260200182805461090790613335565b80156109545780601f1061092957610100808354040283529160200191610954565b820191906000526020600020905b81548152906001019060200180831161093757829003601f168201915b5050505050915050919050565b61097c83838360405180602001604052806000815250610cbc565b505050565b6000806002600084815260200190815260200160002060009054906101000a900473ffffffffffffffffffffffffffffffffffffffff169050600073ffffffffffffffffffffffffffffffffffffffff168173ffffffffffffffffffffffffffffffffffffffff161415610a2a576040517f08c379a0000000000000000000000000000000000000000000000000000000008152600401610a2190612f61565b60405180910390fd5b80915050919050565b60008073ffffffffffffffffffffffffffffffffffffffff168273ffffffffffffffffffffffffffffffffffffffff161415610aa4576040517f08c379a0000000000000000000000000000000000000000000000000000000008152600401610a9b90612f41565b60405180910390fd5b600360008373ffffffffffffffffffffffffffffffffffffffff1673ffffffffffffffffffffffffffffffffffffffff168152602001908152602001600020549050919050565b662386f26fc1000081565b606060018054610b0590613335565b80601f0160208091040260200160405190810160405280929190818152602001828054610b3190613335565b8015610b7e5780601f10610b5357610100808354040283529160200191610b7e565b820191906000526020600020905b815481529060010190602001808311610b6157829003601f168201915b5050505050905090565b610b9a610b93611413565b83836119ee565b5050565b60606000610bd2610bae8461180e565b604051602001610bbe9190612cab565b6040516020818303038152906040526119bb565b9050600a8054905081610be591906133e1565b9050600a8181548110610c21577f4e487b7100000000000000000000000000000000000000000000000000000000600052603260045260246000fd5b906000526020600020018054610c3690613335565b80601f0160208091040260200160405190810160405280929190818152602001828054610c6290613335565b8015610caf5780601f10610c8457610100808354040283529160200191610caf565b820191906000526020600020905b815481529060010190602001808311610c9257829003601f168201915b5050505050915050919050565b610ccd610cc7611413565b836114d4565b610d0c576040517f08c379a0000000000000000000000000000000000000000000000000000000008152600401610d0390613081565b60405180910390fd5b610d1884848484611b5b565b50505050565b60606000610d52610d2e8461180e565b604051602001610d3e9190612c89565b6040516020818303038152906040526119bb565b9050600b8054905081610d6591906133e1565b9050600b8181548110610da1577f4e487b7100000000000000000000000000000000000000000000000000000000600052603260045260246000fd5b906000526020600020018054610db690613335565b80601f0160208091040260200160405190810160405280929190818152602001828054610de290613335565b8015610e2f5780601f10610e0457610100808354040283529160200191610e2f565b820191906000526020600020905b815481529060010190602001808311610e1257829003601f168201915b5050505050915050919050565b6060610e47826113a7565b610e86576040517f08c379a0000000000000000000000000000000000000000000000000000000008152600401610e7d90612fc1565b60405180910390fd5b6000600660008481526020019081526020016000208054610ea690613335565b80601f0160208091040260200160405190810160405280929190818152602001828054610ed290613335565b8015610f1f5780601f10610ef457610100808354040283529160200191610f1f565b820191906000526020600020905b815481529060010190602001808311610f0257829003601f168201915b505050505090506000610f30611bb7565b9050600081511415610f46578192505050610f89565b600082511115610f7b578082604051602001610f63929190612c05565b60405160208183030381529060405292505050610f89565b610f8484611bce565b925050505b919050565b6000610f9a6007611399565b9050601e8110610fdf576040517f08c379a0000000000000000000000000000000000000000000000000000000008152600401610fd690613061565b60405180910390fd5b662386f26fc10000341015611029576040517f08c379a000000000000000000000000000000000000000000000000000000000815260040161102090612ee1565b60405180910390fd5b600061103482610843565b9050600061104183610b9e565b9050600061104e84610d1e565b9050600083838360405160200161106793929190612c29565b6040516020818303038152906040529050600060088260405160200161108e929190612c5a565b604051602081830303815290604052905060006110d3836110ae84611c75565b6040516020016110bf929190612ccd565b604051602081830303815290604052611c75565b90506000816040516020016110e89190612d34565b60405160208183030381529060405290506111376040518060400160405280601581526020017f0a2d2d2d2d2d2d2d2d2d2d2d2d2d2d2d2d2d2d2d2d0000000000000000000000815250611296565b61114081611296565b61117e6040518060400160405280601581526020017f2d2d2d2d2d2d2d2d2d2d2d2d2d2d2d2d2d2d2d2d0a0000000000000000000000815250611296565b6111883389611e33565b6111928882611e51565b61119c6007611ec5565b6111bf604051806060016040528060258152602001613bec602591398933611edb565b7febb98688741ffa4c7589bf325de30cf7becb63de567842e1ccdb6cb949fdc82c33896040516111f0929190612dbd565b60405180910390a15050505050505050565b6000600560008473ffffffffffffffffffffffffffffffffffffffff1673ffffffffffffffffffffffffffffffffffffffff16815260200190815260200160002060008373ffffffffffffffffffffffffffffffffffffffff1673ffffffffffffffffffffffffffffffffffffffff16815260200190815260200160002060009054906101000a900460ff16905092915050565b61132c816040516024016112aa9190612e01565b6040516020818303038152906040527f41304fac000000000000000000000000000000000000000000000000000000007bffffffffffffffffffffffffffffffffffffffffffffffffffffffff19166020820180517bffffffffffffffffffffffffffffffffffffffffffffffffffffffff8381831617835250505050611f7a565b50565b60007f01ffc9a7000000000000000000000000000000000000000000000000000000007bffffffffffffffffffffffffffffffffffffffffffffffffffffffff1916827bffffffffffffffffffffffffffffffffffffffffffffffffffffffff1916149050919050565b600081600001549050919050565b60008073ffffffffffffffffffffffffffffffffffffffff166002600084815260200190815260200160002060009054906101000a900473ffffffffffffffffffffffffffffffffffffffff1673ffffffffffffffffffffffffffffffffffffffff1614159050919050565b600033905090565b816004600083815260200190815260200160002060006101000a81548173ffffffffffffffffffffffffffffffffffffffff021916908373ffffffffffffffffffffffffffffffffffffffff160217905550808273ffffffffffffffffffffffffffffffffffffffff1661148e83610981565b73ffffffffffffffffffffffffffffffffffffffff167f8c5be1e5ebec7d5bd14f71427d1e84f3dd0314c0f7b2291e5b200ac8c7c3b92560405160405180910390a45050565b60006114df826113a7565b61151e576040517f08c379a000000000000000000000000000000000000000000000000000000000815260040161151590612f01565b60405180910390fd5b600061152983610981565b90508073ffffffffffffffffffffffffffffffffffffffff168473ffffffffffffffffffffffffffffffffffffffff16148061159857508373ffffffffffffffffffffffffffffffffffffffff1661158084610646565b73ffffffffffffffffffffffffffffffffffffffff16145b806115a957506115a88185611202565b5b91505092915050565b8273ffffffffffffffffffffffffffffffffffffffff166115d282610981565b73ffffffffffffffffffffffffffffffffffffffff1614611628576040517f08c379a000000000000000000000000000000000000000000000000000000000815260040161161f90613001565b60405180910390fd5b600073ffffffffffffffffffffffffffffffffffffffff168273ffffffffffffffffffffffffffffffffffffffff161415611698576040517f08c379a000000000000000000000000000000000000000000000000000000000815260040161168f90612ea1565b60405180910390fd5b6116a3838383611fa3565b6116ae60008261141b565b6001600360008573ffffffffffffffffffffffffffffffffffffffff1673ffffffffffffffffffffffffffffffffffffffff16815260200190815260200160002060008282546116fe919061324b565b925050819055506001600360008473ffffffffffffffffffffffffffffffffffffffff1673ffffffffffffffffffffffffffffffffffffffff1681526020019081526020016000206000828254611755919061316a565b92505081905550816002600083815260200190815260200160002060006101000a81548173ffffffffffffffffffffffffffffffffffffffff021916908373ffffffffffffffffffffffffffffffffffffffff160217905550808273ffffffffffffffffffffffffffffffffffffffff168473ffffffffffffffffffffffffffffffffffffffff167fddf252ad1be2c89b69c2b068fc378daa952ba7f163c4a11628f55a4df523b3ef60405160405180910390a4505050565b60606000821415611856576040518060400160405280600181526020017f300000000000000000000000000000000000000000000000000000000000000081525090506119b6565b600082905060005b6000821461188857808061187190613398565b915050600a8261188191906131c0565b915061185e565b60008167ffffffffffffffff8111156118ca577f4e487b7100000000000000000000000000000000000000000000000000000000600052604160045260246000fd5b6040519080825280601f01601f1916602001820160405280156118fc5781602001600182028036833780820191505090505b5090505b600085146119af57600182611915919061324b565b9150600a8561192491906133e1565b6030611930919061316a565b60f81b81838151811061196c577f4e487b7100000000000000000000000000000000000000000000000000000000600052603260045260246000fd5b60200101907effffffffffffffffffffffffffffffffffffffffffffffffffffffffffffff1916908160001a905350600a856119a891906131c0565b9450611900565b8093505050505b919050565b6000816040516020016119ce9190612bee565b6040516020818303038152906040528051906020012060001c9050919050565b8173ffffffffffffffffffffffffffffffffffffffff168373ffffffffffffffffffffffffffffffffffffffff161415611a5d576040517f08c379a0000000000000000000000000000000000000000000000000000000008152600401611a5490612ec1565b60405180910390fd5b80600560008573ffffffffffffffffffffffffffffffffffffffff1673ffffffffffffffffffffffffffffffffffffffff16815260200190815260200160002060008473ffffffffffffffffffffffffffffffffffffffff1673ffffffffffffffffffffffffffffffffffffffff16815260200190815260200160002060006101000a81548160ff0219169083151502179055508173ffffffffffffffffffffffffffffffffffffffff168373ffffffffffffffffffffffffffffffffffffffff167f17307eab39ab6107e8899845ad3d59bd9653f200f220920489ca2b5937696c3183604051611b4e9190612de6565b60405180910390a3505050565b611b668484846115b2565b611b7284848484611fa8565b611bb1576040517f08c379a0000000000000000000000000000000000000000000000000000000008152600401611ba890612e61565b60405180910390fd5b50505050565b606060405180602001604052806000815250905090565b6060611bd9826113a7565b611c18576040517f08c379a0000000000000000000000000000000000000000000000000000000008152600401611c0f90613021565b60405180910390fd5b6000611c22611bb7565b90506000815111611c425760405180602001604052806000815250611c6d565b80611c4c8461180e565b604051602001611c5d929190612c05565b6040516020818303038152906040525b915050919050565b60606000825190506000811415611c9e5760405180602001604052806000815250915050611e2e565b60006003600283611caf919061316a565b611cb991906131c0565b6004611cc591906131f1565b90506000602082611cd6919061316a565b67ffffffffffffffff811115611d15577f4e487b7100000000000000000000000000000000000000000000000000000000600052604160045260246000fd5b6040519080825280601f01601f191660200182016040528015611d475781602001600182028036833780820191505090505b5090506000604051806060016040528060408152602001613c11604091399050600181016020830160005b86811015611deb5760038101905062ffffff818a015116603f8160121c168401518060081b905060ff603f83600c1c1686015116810190508060081b905060ff603f8360061c1686015116810190508060081b905060ff603f831686015116810190508060e01b90508084526004840193505050611d72565b506003860660018114611e055760028114611e1557611e20565b613d3d60f01b6002830352611e20565b603d60f81b60018303525b508484525050819450505050505b919050565b611e4d82826040518060200160405280600081525061213f565b5050565b611e5a826113a7565b611e99576040517f08c379a0000000000000000000000000000000000000000000000000000000008152600401611e9090612f81565b60405180910390fd5b80600660008481526020019081526020016000209080519060200190611ec092919061237b565b505050565b6001816000016000828254019250508190555050565b611f75838383604051602401611ef393929190612e23565b6040516020818303038152906040527fe3849f79000000000000000000000000000000000000000000000000000000007bffffffffffffffffffffffffffffffffffffffffffffffffffffffff19166020820180517bffffffffffffffffffffffffffffffffffffffffffffffffffffffff8381831617835250505050611f7a565b505050565b60008151905060006a636f6e736f6c652e6c6f679050602083016000808483855afa5050505050565b505050565b6000611fc98473ffffffffffffffffffffffffffffffffffffffff1661219a565b15612132578373ffffffffffffffffffffffffffffffffffffffff1663150b7a02611ff2611413565b8786866040518563ffffffff1660e01b81526004016120149493929190612d71565b602060405180830381600087803b15801561202e57600080fd5b505af192505050801561205f57506040513d601f19601f8201168201806040525081019061205c91906126bf565b60015b6120e2573d806000811461208f576040519150601f19603f3d011682016040523d82523d6000602084013e612094565b606091505b506000815114156120da576040517f08c379a00000000000000000000000000000000000000000000000000000000081526004016120d190612e61565b60405180910390fd5b805181602001fd5b63150b7a0260e01b7bffffffffffffffffffffffffffffffffffffffffffffffffffffffff1916817bffffffffffffffffffffffffffffffffffffffffffffffffffffffff191614915050612137565b600190505b949350505050565b61214983836121ad565b6121566000848484611fa8565b612195576040517f08c379a000000000000000000000000000000000000000000000000000000000815260040161218c90612e61565b60405180910390fd5b505050565b600080823b905060008111915050919050565b600073ffffffffffffffffffffffffffffffffffffffff168273ffffffffffffffffffffffffffffffffffffffff16141561221d576040517f08c379a000000000000000000000000000000000000000000000000000000000815260040161221490612fa1565b60405180910390fd5b612226816113a7565b15612266576040517f08c379a000000000000000000000000000000000000000000000000000000000815260040161225d90612e81565b60405180910390fd5b61227260008383611fa3565b6001600360008473ffffffffffffffffffffffffffffffffffffffff1673ffffffffffffffffffffffffffffffffffffffff16815260200190815260200160002060008282546122c2919061316a565b92505081905550816002600083815260200190815260200160002060006101000a81548173ffffffffffffffffffffffffffffffffffffffff021916908373ffffffffffffffffffffffffffffffffffffffff160217905550808273ffffffffffffffffffffffffffffffffffffffff16600073ffffffffffffffffffffffffffffffffffffffff167fddf252ad1be2c89b69c2b068fc378daa952ba7f163c4a11628f55a4df523b3ef60405160405180910390a45050565b82805461238790613335565b90600052602060002090601f0160209004810192826123a957600085556123f0565b82601f106123c257805160ff19168380011785556123f0565b828001600101855582156123f0579182015b828111156123ef5782518255916020019190600101906123d4565b5b5090506123fd9190612401565b5090565b5b8082111561241a576000816000905550600101612402565b5090565b600061243161242c846130e1565b6130bc565b90508281526020810184848401111561244957600080fd5b6124548482856132f3565b509392505050565b60008135905061246b81613b8f565b92915050565b60008135905061248081613ba6565b92915050565b60008135905061249581613bbd565b92915050565b6000815190506124aa81613bbd565b92915050565b600082601f8301126124c157600080fd5b81356124d184826020860161241e565b91505092915050565b6000813590506124e981613bd4565b92915050565b60006020828403121561250157600080fd5b600061250f8482850161245c565b91505092915050565b6000806040838503121561252b57600080fd5b60006125398582860161245c565b925050602061254a8582860161245c565b9150509250929050565b60008060006060848603121561256957600080fd5b60006125778682870161245c565b93505060206125888682870161245c565b9250506040612599868287016124da565b9150509250925092565b600080600080608085870312156125b957600080fd5b60006125c78782880161245c565b94505060206125d88782880161245c565b93505060406125e9878288016124da565b925050606085013567ffffffffffffffff81111561260657600080fd5b612612878288016124b0565b91505092959194509250565b6000806040838503121561263157600080fd5b600061263f8582860161245c565b925050602061265085828601612471565b9150509250929050565b6000806040838503121561266d57600080fd5b600061267b8582860161245c565b925050602061268c858286016124da565b9150509250929050565b6000602082840312156126a857600080fd5b60006126b684828501612486565b91505092915050565b6000602082840312156126d157600080fd5b60006126df8482850161249b565b91505092915050565b6000602082840312156126fa57600080fd5b6000612708848285016124da565b91505092915050565b61271a8161327f565b82525050565b61272981613291565b82525050565b600061273a82613127565b612744818561313d565b9350612754818560208601613302565b61275d816134ce565b840191505092915050565b600061277382613132565b61277d818561314e565b935061278d818560208601613302565b612796816134ce565b840191505092915050565b60006127ac82613132565b6127b6818561315f565b93506127c6818560208601613302565b80840191505092915050565b600081546127df81613335565b6127e9818661315f565b94506001821660008114612804576001811461281557612848565b60ff19831686528186019350612848565b61281e85613112565b60005b8381101561284057815481890152600182019150602081019050612821565b838801955050505b50505092915050565b600061285e60328361314e565b9150612869826134df565b604082019050919050565b6000612881601c8361314e565b915061288c8261352e565b602082019050919050565b60006128a4600a8361315f565b91506128af82613557565b600a82019050919050565b60006128c760248361314e565b91506128d282613580565b604082019050919050565b60006128ea60198361314e565b91506128f5826135cf565b602082019050919050565b600061290d60638361315f565b9150612918826135f8565b606382019050919050565b6000612930600b8361315f565b915061293b82613693565b600b82019050919050565b600061295360228361314e565b915061295e826136bc565b604082019050919050565b6000612976602c8361314e565b91506129818261370b565b604082019050919050565b6000612999600d8361315f565b91506129a48261375a565b600d82019050919050565b60006129bc60388361314e565b91506129c782613783565b604082019050919050565b60006129df602a8361314e565b91506129ea826137d2565b604082019050919050565b6000612a0260298361314e565b9150612a0d82613821565b604082019050919050565b6000612a25602e8361314e565b9150612a3082613870565b604082019050919050565b6000612a4860028361315f565b9150612a53826138bf565b600282019050919050565b6000612a6b60208361314e565b9150612a76826138e8565b602082019050919050565b6000612a8e60318361314e565b9150612a9982613911565b604082019050919050565b6000612ab1602c8361314e565b9150612abc82613960565b604082019050919050565b6000612ad460298361314e565b9150612adf826139af565b604082019050919050565b6000612af7602f8361314e565b9150612b02826139fe565b604082019050919050565b6000612b1a600a8361315f565b9150612b2582613a4d565b600a82019050919050565b6000612b3d60218361314e565b9150612b4882613a76565b604082019050919050565b6000612b60600a8361315f565b9150612b6b82613ac5565b600a82019050919050565b6000612b83601a8361314e565b9150612b8e82613aee565b602082019050919050565b6000612ba6601d8361315f565b9150612bb182613b17565b601d82019050919050565b6000612bc960318361314e565b9150612bd482613b40565b604082019050919050565b612be8816132e9565b82525050565b6000612bfa82846127a1565b915081905092915050565b6000612c1182856127a1565b9150612c1d82846127a1565b91508190509392505050565b6000612c3582866127a1565b9150612c4182856127a1565b9150612c4d82846127a1565b9150819050949350505050565b6000612c6682856127d2565b9150612c7282846127a1565b9150612c7d8261298c565b91508190509392505050565b6000612c9482612897565b9150612ca082846127a1565b915081905092915050565b6000612cb682612923565b9150612cc282846127a1565b915081905092915050565b6000612cd882612b0d565b9150612ce482856127a1565b9150612cef82612900565b9150612cfb82846127a1565b9150612d0682612a3b565b91508190509392505050565b6000612d1d82612b53565b9150612d2982846127a1565b915081905092915050565b6000612d3f82612b99565b9150612d4b82846127a1565b915081905092915050565b6000602082019050612d6b6000830184612711565b92915050565b6000608082019050612d866000830187612711565b612d936020830186612711565b612da06040830185612bdf565b8181036060830152612db2818461272f565b905095945050505050565b6000604082019050612dd26000830185612711565b612ddf6020830184612bdf565b9392505050565b6000602082019050612dfb6000830184612720565b92915050565b60006020820190508181036000830152612e1b8184612768565b905092915050565b60006060820190508181036000830152612e3d8186612768565b9050612e4c6020830185612bdf565b612e596040830184612711565b949350505050565b60006020820190508181036000830152612e7a81612851565b9050919050565b60006020820190508181036000830152612e9a81612874565b9050919050565b60006020820190508181036000830152612eba816128ba565b9050919050565b60006020820190508181036000830152612eda816128dd565b9050919050565b60006020820190508181036000830152612efa81612946565b9050919050565b60006020820190508181036000830152612f1a81612969565b9050919050565b60006020820190508181036000830152612f3a816129af565b9050919050565b60006020820190508181036000830152612f5a816129d2565b9050919050565b60006020820190508181036000830152612f7a816129f5565b9050919050565b60006020820190508181036000830152612f9a81612a18565b9050919050565b60006020820190508181036000830152612fba81612a5e565b9050919050565b60006020820190508181036000830152612fda81612a81565b9050919050565b60006020820190508181036000830152612ffa81612aa4565b9050919050565b6000602082019050818103600083015261301a81612ac7565b9050919050565b6000602082019050818103600083015261303a81612aea565b9050919050565b6000602082019050818103600083015261305a81612b30565b9050919050565b6000602082019050818103600083015261307a81612b76565b9050919050565b6000602082019050818103600083015261309a81612bbc565b9050919050565b60006020820190506130b66000830184612bdf565b92915050565b60006130c66130d7565b90506130d28282613367565b919050565b6000604051905090565b600067ffffffffffffffff8211156130fc576130fb61349f565b5b613105826134ce565b9050602081019050919050565b60008190508160005260206000209050919050565b600081519050919050565b600081519050919050565b600082825260208201905092915050565b600082825260208201905092915050565b600081905092915050565b6000613175826132e9565b9150613180836132e9565b9250827fffffffffffffffffffffffffffffffffffffffffffffffffffffffffffffffff038211156131b5576131b4613412565b5b828201905092915050565b60006131cb826132e9565b91506131d6836132e9565b9250826131e6576131e5613441565b5b828204905092915050565b60006131fc826132e9565b9150613207836132e9565b9250817fffffffffffffffffffffffffffffffffffffffffffffffffffffffffffffffff04831182151516156132405761323f613412565b5b828202905092915050565b6000613256826132e9565b9150613261836132e9565b92508282101561327457613273613412565b5b828203905092915050565b600061328a826132c9565b9050919050565b60008115159050919050565b60007fffffffff0000000000000000000000000000000000000000000000000000000082169050919050565b600073ffffffffffffffffffffffffffffffffffffffff82169050919050565b6000819050919050565b82818337600083830152505050565b60005b83811015613320578082015181840152602081019050613305565b8381111561332f576000848401525b50505050565b6000600282049050600182168061334d57607f821691505b6020821081141561336157613360613470565b5b50919050565b613370826134ce565b810181811067ffffffffffffffff8211171561338f5761338e61349f565b5b80604052505050565b60006133a3826132e9565b91507fffffffffffffffffffffffffffffffffffffffffffffffffffffffffffffffff8214156133d6576133d5613412565b5b600182019050919050565b60006133ec826132e9565b91506133f7836132e9565b92508261340757613406613441565b5b828206905092915050565b7f4e487b7100000000000000000000000000000000000000000000000000000000600052601160045260246000fd5b7f4e487b7100000000000000000000000000000000000000000000000000000000600052601260045260246000fd5b7f4e487b7100000000000000000000000000000000000000000000000000000000600052602260045260246000fd5b7f4e487b7100000000000000000000000000000000000000000000000000000000600052604160045260246000fd5b6000601f19601f8301169050919050565b7f4552433732313a207472616e7366657220746f206e6f6e20455243373231526560008201527f63656976657220696d706c656d656e7465720000000000000000000000000000602082015250565b7f4552433732313a20746f6b656e20616c7265616479206d696e74656400000000600082015250565b7f54484952445f574f524400000000000000000000000000000000000000000000600082015250565b7f4552433732313a207472616e7366657220746f20746865207a65726f2061646460008201527f7265737300000000000000000000000000000000000000000000000000000000602082015250565b7f4552433732313a20617070726f766520746f2063616c6c657200000000000000600082015250565b7f222c20226465736372697074696f6e223a20224120686967686c79206163636c60008201527f61696d656420636f6c6c656374696f6e206f6620737175617265732e222c202260208201527f696d616765223a2022646174613a696d6167652f7376672b786d6c3b6261736560408201527f36342c0000000000000000000000000000000000000000000000000000000000606082015250565b7f5345434f4e445f574f5244000000000000000000000000000000000000000000600082015250565b7f4e6f7420656e6f75676820657468657220746f207075726368617365204e465460008201527f732e000000000000000000000000000000000000000000000000000000000000602082015250565b7f4552433732313a206f70657261746f7220717565727920666f72206e6f6e657860008201527f697374656e7420746f6b656e0000000000000000000000000000000000000000602082015250565b7f3c2f746578743e3c2f7376673e00000000000000000000000000000000000000600082015250565b7f4552433732313a20617070726f76652063616c6c6572206973206e6f74206f7760008201527f6e6572206e6f7220617070726f76656420666f7220616c6c0000000000000000602082015250565b7f4552433732313a2062616c616e636520717565727920666f7220746865207a6560008201527f726f206164647265737300000000000000000000000000000000000000000000602082015250565b7f4552433732313a206f776e657220717565727920666f72206e6f6e657869737460008201527f656e7420746f6b656e0000000000000000000000000000000000000000000000602082015250565b7f45524337323155524953746f726167653a2055524920736574206f66206e6f6e60008201527f6578697374656e7420746f6b656e000000000000000000000000000000000000602082015250565b7f227d000000000000000000000000000000000000000000000000000000000000600082015250565b7f4552433732313a206d696e7420746f20746865207a65726f2061646472657373600082015250565b7f45524337323155524953746f726167653a2055524920717565727920666f722060008201527f6e6f6e6578697374656e7420746f6b656e000000000000000000000000000000602082015250565b7f4552433732313a20617070726f76656420717565727920666f72206e6f6e657860008201527f697374656e7420746f6b656e0000000000000000000000000000000000000000602082015250565b7f4552433732313a207472616e73666572206f6620746f6b656e2074686174206960008201527f73206e6f74206f776e0000000000000000000000000000000000000000000000602082015250565b7f4552433732314d657461646174613a2055524920717565727920666f72206e6f60008201527f6e6578697374656e7420746f6b656e0000000000000000000000000000000000602082015250565b7f7b226e616d65223a202200000000000000000000000000000000000000000000600082015250565b7f4552433732313a20617070726f76616c20746f2063757272656e74206f776e6560008201527f7200000000000000000000000000000000000000000000000000000000000000602082015250565b7f46495253545f574f524400000000000000000000000000000000000000000000600082015250565b7f416c6c206f662032204e4654732077657265206d696e74656421000000000000600082015250565b7f646174613a6170706c69636174696f6e2f6a736f6e3b6261736536342c000000600082015250565b7f4552433732313a207472616e736665722063616c6c6572206973206e6f74206f60008201527f776e6572206e6f7220617070726f766564000000000000000000000000000000602082015250565b613b988161327f565b8114613ba357600080fd5b50565b613baf81613291565b8114613bba57600080fd5b50565b613bc68161329d565b8114613bd157600080fd5b50565b613bdd816132e9565b8114613be857600080fd5b5056fe416e204e465420772f20494420257320686173206265656e206d696e74656420746f2025734142434445464748494a4b4c4d4e4f505152535455565758595a6162636465666768696a6b6c6d6e6f707172737475767778797a303132333435363738392b2fa26469706673582212206072ca9125b266ea90a8faa6795610e2b239a4cb9b66d4f1a54e566d7c6a8fc764736f6c634300080400333c73766720786d6c6e733d27687474703a2f2f7777772e77332e6f72672f323030302f73766727207072657365727665417370656374526174696f3d27784d696e594d696e206d656574272076696577426f783d273020302033353020333530273e3c7374796c653e2e62617365207b2066696c6c3a2077686974653b20666f6e742d66616d696c793a2073657269663b20666f6e742d73697a653a20323470783b207d3c2f7374796c653e3c726563742077696474683d273130302527206865696768743d2731303025272066696c6c3d27626c61636b27202f3e3c7465787420783d273530252720793d273530252720636c6173733d27626173652720646f6d696e616e742d626173656c696e653d276d6964646c652720746578742d616e63686f723d276d6964646c65273e",
  "linkReferences": {},
  "deployedLinkReferences": {}
}